:0300000002004CAF
:200008000000E2FBEAF2802C0000E0FBEAF08024E6B50202EBF62200E2B50202EBF22200DE
:20002800E0B50202EBF02230F6E0A88220F5D3EAC6F582228B822230F6E6A88220F5D980EE
:01004800CFE8
:0300A5000200490D
:03004900020D9213
:2000A80075C60F75900175A0FF75C40075BA1175BCFF75BE0275C20022AE82AF837C007D42
:2000C80000C3EC9EED9F50157A077B00001ABAFF011BEA4B70F60CBC00E70D80E422758914
:2000E80001758DE675C9A022C28D758CFC758A18D28C308DFDC28C22AE82AF837C007D00C9
:20010800C3EC9EED9F501AC007C006C005C0041200F0D004D005D006D0070CBC00E20D80EF
:20012800DF2275A15575A1AA53B3E043B30675B2D875A1FF900007020100C29FD29EC29DCB
:20014800C29C438780E589540F4420F589D28ED29922AE8210990280FB8E9922AE82AF834E
:20016800EE4F600E8EA05390FE90000112010043900122AD82AE83AFF0900A08E07001220F
:200188008D828E838FF0120DD0FC603BBC0A1290000DC007C006C00512015AD005D006D083
:2001A800078D828E838FF0120DD0FCA3AD82AE837B008C828B83C007C006C00512015AD07D
:2001C80005D006D00780B922E582FFC4540FFE53070F900DF075F080C007C00612017BD0B9
:2001E80006D007EE24F6500D8E047D0074372CFCE43DFD80097B0074302EFCE43BFD8C82B9
:200208008D83C00712015AD007EF24F6500D8F057E0074372DFDE43EFE80097C0074302F76
:20022800FDE43CFE8D828E8312015A900DF375F08002017BAF827DE87E03E52160047DF429
:200248007E015390EF7C00C3EC9F50334390108D828E83C007C006C005C004120100D004F8
:20026800D005D0065390EF8D828E83C006C005C004120100D004D005D006D0070C80C822AB
:20028800AF82BF7F004004758200228F06E508FD542260027401FCED541160027401FDEDAF
:2002A8006012BF0400400DEF24E240088F0574FD2DF582228C05BF0400400FEF24E2400ACA
:2002C800900A09E06C60027401FDED6008EE900E7493F58222EE900DF593F5822290080589
:2002E800E4F0900806F0F5E522C2EA75E28075E3009024477448F090244CE4F0A3F09024FB
:200308004E04F0E4A3F0F5D4F5D675E28975D24075D8FF1202E575E10322AF82E5E3548094
:20032800FE747F5F4EF5E322E582600753E2BF53D27F2243E240229006047408F075820011
:2003480012032275820112033074FB55E54402F5E590000F12010053E5FD9000FA1200C114
:20036800C2D822900805E0FFBF010050069008057401F0E5DB30E721E5E520E015E5DB305E
:20038800E60A900807E4F043E50480069008077401F043E50175820022758216229008062D
:2003A800E0F582120322900807E0F5820203308582258522D48522D6E4F526F527E525C46F
:2003C800540FFCBC0103EC8001E4FBE4BC090104FAA823A9248525D5C2D97EC87F00EE4F4E
:2003E800602C20D929900001C007C006C004C003C002C001C0001200C1D000D001D002D049
:2004080003D004D006D0071EBEFF011F80D075D50020D9047582FE2220D9030204A430DEF3
:200428000475820022E5D9540FFFBF0E0674204FF58222BF0A27E849700674204FF5822215
:2004480088058906C3ED94FFEE94FF500518B8FF0119152674FFB5260215278042EB70068C
:20046800EA7013BC0D32BF020475820022EF602F74204FF58222E5226008E4BF0B0104FE14
:200488008006E4BF030104FEEE600475820022EF600D74204FF582227582FE2275D8FF90EF
:2004A800000FC004C003C002C001C0001200C1D000D001D002D003D0040526E4B52602057D
:2004C80027AD26AE27C3ED94C8EE940050030203DD7582202285822D85832E85282F852955
:2004E80030852A319000C81200C1E52F45306011852F828530838531F0E4120DB5A3120D31
:20050800B575D7087522007523107524277582D01203B7E582FA60038A822275D6D075D4E2
:20052800D075D701900107E0FA7900900106E07F004201EF4202E94A7003020706E52D4533
:200548002E7003020706900100E020E703020629E94A700302062390012CC002C001120014
:20056800C185D4227523107524277582901203B7AF82D001D002EF60038F8222AED17F0025
:20058800C3EE99EF9A5004AED1800489068A078E2BAF2B89008A068F32753300E8C3953282
:2005A800F8EE9533FE88018E02E52F4530602C852F828530838531F0120DD0FEA3120DD0C6
:2005C800FFE5322EFEE5333FFF852F828530838531F0EE120DB5A3EF120DB5752C00C3E5F6
:2005E8002C952B5019E52C252DF8E4352EFE852C82758300E088828E83F0052C80E0E52B47
:20060800252DF52DE4352EF52EE5D1600E900604E0FFC3E5D19F400302055875D700020748
:2006280006E94A70030207069000C8C002C0011200C1D001D002752C00900604E0F87E0015
:20064800C3E998EA9E9200500489008A06AD2C7F00C3ED98EF9E5019AE2C7F01E52C252D74
:20066800F582E4352EF583E08E828F83F0052C80C8900604E0FE7F00C3E99EEA9F92005025
:200688000489068A078ED7E5D7252DF52DE4352EF52E85D622752310752427758210C00281
:2006A800C0011203B7AF82D001D002EF60038F8222AFD789058A067C00EDC39FFDEE9CFE58
:2006C8008D018E02E52F45307003020629852F828530838531F0120DD0FEA3120DD0FFAD88
:2006E800D77C00ED2EFEEC3FFF852F828530838531F0EE120DB5A3EF120DB502062990005F
:20070800C81200C1E5D760047F9080027F107522C07523107524278F821203B7E582FF6094
:20072800038F8222E5D77003F58222E5D17003F5822275821722AE82AF837D008D037C00D6
:20074800C3EB9508EC950950168D037C01ED2EF582E43FF583E4938B828C83F00D80DD220D
:200768009006047408F0F508750900900EF312073E752834752900752A409006051204DD2C
:20078800E582FE60038E822290060CE0900604F0900EF9E493FF7E00C3E5349FE5359E503D
:2007A800047582172275820022AF82750808750900900F03C00712073ED007900102EFF0A7
:2007C800E4F528F529F52A900000C0071204DDAE82D007EEFD60038D82228F82120322902B
:2007E800006412010075820022AF82750808750900900F0BC00712073ED007900102EFF01C
:20080800E4F528F529F52A9000000204DD750808750900900EFB12073E7528367529007546
:200828002A409006051204DDE582FF60038F8222900607E0FF7E00900608E0FCE42FFFEC4A
:200848003EFE8F048E05C3E49C74029D50047F007E02750808750900900EFBC007C006124A
:20086800073ED006D0078F05900106EDF08E07900107EFF0752836752900752A409006057F
:200888001204DDE582FF60038F822275820022900600E4F0900601F0900602F0900603F046
:2008A800900A09F0900A0AF022AF82C0071203A5750808750900900F2312073E900602E0A1
:2008C800900104F075D7087522007523107524277582D01203B7AE82D007EE60038E82221B
:2008E80075D6D075D4D0900100EFF075D70185D6227523107524277582101203B7E582FFE1
:2009080060038F822275D7007522C07523107524277582901203B7E582FF60038F8222756A
:20092800820022900600E07001221203A5900603E0FF747F5FFE530780430690EF60027408
:20094800C0FF8F22E4F523F5248E821203B7E582600122900603E06480F0AFD1BF08005060
:200968000122900000E0FF900002E0FE7D00BE391B900A0CE0FCBC39028011900A09E0B49D
:2009880001009201900A09E433F07D01BE531B900A0CE0FCBC53028011900A0AE0B401000A
:2009A8009201900A0AE433F07D01ED60207D00900A0AE060027D01900A09E06003430502F5
:2009C8008D82C007C0061208B1D006D007BE04009201406A900A0CE0FDEEB50502805F8F61
:2009E800088E82C006120288AF82D006EF604F8F047D008C828D83C007C006120164D006C8
:200A0800D007BF0D0E90000AC007C00612015AD006D007BF01004019EF24E6401490005E88
:200A2800C007C00612015AD006D0078F0574602DFF7D008F828D83C00612015AD006EE607E
:200A480003200105900A0CEEF022750808750900900F1312073E900602E0900104F0E4F5DD
:200A680028F529F52A9000001204DD750808750900900F1B12073E900602E0900104F090E5
:200A88000106E4F09001077402F0752838752900752A409006051204DDE582FE60038E82BD
:200AA80022900F2B75F08012017B75820022753B00753A009000C812010012089712033FE7
:200AC8007D00900001C00512010012036BE582D00560060DBD640040E9BD64061202E5028D
:200AE8000D181203A5120768E582F53B6003020D0C900F05E493FD0D8D82C0051207B18531
:200B0800823BD005E53B6003020D0C900806EDF0120815E582F53B6003020D0C7C007D00E5
:200B280090060AE0F582C005C0041207F185823BD004D005900607E0FB7A00900608E0F9CF
:200B4800E42BFBE93AFA8B3E8A3FA83EA93FC3E4987402995006753E00753F027800790008
:200B6800C3E8953EE9953F501FE82408FEE93408FFE82405F582E93406F583E08E828F8368
:200B8800F008B800DB0980D8900605E0F53C753D00C3E53C953EE53D953F4003020D0CE513
:200BA8003C2408FAE53D3408FB8A828B83A3E0F9B904028008B905028038020CF38A048B03
:200BC800058C828D83A3A3A3A3A3E0F9B9031C900F4C75F080C005C004C003C00212017B9E
:200BE800D002D003D004D005020CF37C007D00020CF3EC4D7003020CF38C828D83A3A3A3F0
:200C0800A3A3E0F9B903028003020CF38A408B4174022540F8E43541F988828983E020E7B2
:200C280003020CF3854082854183A3A3A3E0FF530703BF03028003020CF3900F6175F080C6
:200C4800C005C004C001C00012017BD000D001D004D00588828983E0F8900603F043008070
:200C6800900603E8F09006007401F08C828D83A3A3E0900602F09006017401F0120A527555
:200C880082001208B1900A0CE4F0FEFFC007C0061203A5D006D007900603E0F953017F90BF
:200CA8000603E0F8530080430190E8600274C0F8882275230A7524008982C007C00612039C
:200CC800B7D006D007900603E06480F00EBE00010F8E008F01C3E89405E9940040AE900F13
:200CE8007B75F08012017B758200228A828B83E0FAAE3CAF3D7B00EA2EFEEB3FFF8E3C8F08
:200D08003D020B999008057402F0758201120330053A74F6253A4003020ABC853B82221021
:200D2800D80122E5DB30E73F900805E06005E5E520E0561202E59008057401F0120AB6E5E6
:200D4800827012900FA275F08012017B75210075820202023C900FB975F08012017B7521A3
:200D68000175820502023C900805E0FFBF01004018900FCF75F08012017B75210175820526
:200D880012023C1208970202E5221200A812012A1200E6120142900FE675F08012017B12F1
:0D0DA80008971202F1120D2712092B80F896
:200DF0003078000A00000000006162636465666768696A6B6C6D6E6F70717273747576777D
:200E100078797A313233343536373839300D1B0809202D3D5B5D5C003B27602C2E2F000028
:200E3000000000000000000000000000000000000000000000000000002F2A2D2B0D313281
:200E500033343536373839302E0000000000000000000000000000000000000000000000AA
:200E700000000000000000004142434445464748494A4B4C4D4E4F50515253545556575836
:200E9000595A21402324255E262A28290D1B0809205F2B7B7D7C003A227E3C3E3F000000D9
:200EB0000000000000000000000000000000000000000000000000002F2A2D2B0D313233CE
:200ED000343536373839302E0000000000000000000000000000000000000000000000005D
:200EF00000000080060001000012008006000200001200000502000000000000090000009F
:200F1000000000210A000000000000810600220000FF00210900020000010048494420527A
:200F300065706F72742044657363726970746F72205265747269657665640A00466F756ECC
:200F5000642048494420496E746572666163650A00466F756E6420496E7465727275707484
:200F700020456E64706F696E740A00496E697469616C206B6579626F61726420696E7075DF
:200F9000742062756666657220666C75736865640A004B6579626F61726420696E697420F9
:200FB000535543434553530A004B6579626F61726420696E6974204641494C45440A004BDF
:200FD0006579626F61726420646973636F6E6E65637465640A000A555342206B6579626FD0
:0F0FF00061726420686F73740A000100000000D2
:06007B00E478FFF6D8FD59
:200059007905E94400601B7A01900FFA780875A00AE493F2A308B8000205A0D9F4DAF2752D
:02007900A0FFE6
:1B0DB50020F71130F6138883A88220F509F6A8837583002280FEF280F5F0223D
:200081007800E84400600A790075A006E4F309D8FC7808E84404600C7905900600E4F0A362
:0400A100D8FCD9FAB4
:0D004C00758141120DECE582600302004950
:1C0DD00020F71430F6148883A88220F507E6A88375830022E280F7E49322E02232
:040DEC0075820022EA
:00000001FF
